{
  "contractName": "TokenFarm",
  "abi": [
    {
      "inputs": [
        {
          "internalType": "contract DappToken",
          "name": "_dappToken",
          "type": "address"
        },
        {
          "internalType": "contract DaiToken",
          "name": "_daiToken",
          "type": "address"
        }
      ],
      "payable": false,
      "stateMutability": "nonpayable",
      "type": "constructor"
    },
    {
      "constant": true,
      "inputs": [],
      "name": "daiToken",
      "outputs": [
        {
          "internalType": "contract DaiToken",
          "name": "",
          "type": "address"
        }
      ],
      "payable": false,
      "stateMutability": "view",
      "type": "function"
    },
    {
      "constant": true,
      "inputs": [],
      "name": "dappToken",
      "outputs": [
        {
          "internalType": "contract DappToken",
          "name": "",
          "type": "address"
        }
      ],
      "payable": false,
      "stateMutability": "view",
      "type": "function"
    },
    {
      "constant": true,
      "inputs": [
        {
          "internalType": "address",
          "name": "",
          "type": "address"
        }
      ],
      "name": "hasStaked",
      "outputs": [
        {
          "internalType": "bool",
          "name": "",
          "type": "bool"
        }
      ],
      "payable": false,
      "stateMutability": "view",
      "type": "function"
    },
    {
      "constant": true,
      "inputs": [
        {
          "internalType": "address",
          "name": "",
          "type": "address"
        }
      ],
      "name": "isStaking",
      "outputs": [
        {
          "internalType": "bool",
          "name": "",
          "type": "bool"
        }
      ],
      "payable": false,
      "stateMutability": "view",
      "type": "function"
    },
    {
      "constant": true,
      "inputs": [],
      "name": "name",
      "outputs": [
        {
          "internalType": "string",
          "name": "",
          "type": "string"
        }
      ],
      "payable": false,
      "stateMutability": "view",
      "type": "function"
    },
    {
      "constant": true,
      "inputs": [],
      "name": "owner",
      "outputs": [
        {
          "internalType": "address",
          "name": "",
          "type": "address"
        }
      ],
      "payable": false,
      "stateMutability": "view",
      "type": "function"
    },
    {
      "constant": true,
      "inputs": [
        {
          "internalType": "uint256",
          "name": "",
          "type": "uint256"
        }
      ],
      "name": "stakers",
      "outputs": [
        {
          "internalType": "address",
          "name": "",
          "type": "address"
        }
      ],
      "payable": false,
      "stateMutability": "view",
      "type": "function"
    },
    {
      "constant": true,
      "inputs": [
        {
          "internalType": "address",
          "name": "",
          "type": "address"
        }
      ],
      "name": "stakingBalance",
      "outputs": [
        {
          "internalType": "uint256",
          "name": "",
          "type": "uint256"
        }
      ],
      "payable": false,
      "stateMutability": "view",
      "type": "function"
    },
    {
      "constant": false,
      "inputs": [
        {
          "internalType": "uint256",
          "name": "_amount",
          "type": "uint256"
        }
      ],
      "name": "stakeTokens",
      "outputs": [],
      "payable": false,
      "stateMutability": "nonpayable",
      "type": "function"
    },
    {
      "constant": false,
      "inputs": [],
      "name": "issueTokens",
      "outputs": [],
      "payable": false,
      "stateMutability": "nonpayable",
      "type": "function"
    },
    {
      "constant": false,
      "inputs": [],
      "name": "unstakeTokens",
      "outputs": [],
      "payable": false,
      "stateMutability": "nonpayable",
      "type": "function"
    }
  ],
  "bytecode": "0x60806040526040518060400160405280601481526020017f546f6b656e5377617020546f6b656e204661726d0000000000000000000000008152506000908051906020019061004f929190610164565b5034801561005c57600080fd5b50604051610fd0380380610fd08339818101604052604081101561007f57600080fd5b81019080805190602001909291908051906020019092919050505081600160006101000a81548173ffffffffffffffffffffffffffffffffffffffff021916908373ffffffffffffffffffffffffffffffffffffffff16021790555080600260006101000a81548173ffffffffffffffffffffffffffffffffffffffff021916908373ffffffffffffffffffffffffffffffffffffffff16021790555033600360006101000a81548173ffffffffffffffffffffffffffffffffffffffff021916908373ffffffffffffffffffffffffffffffffffffffff1602179055505050610209565b828054600181600116156101000203166002900490600052602060002090601f016020900481019282601f106101a557805160ff19168380011785556101d3565b828001600101855582156101d3579182015b828111156101d25782518255916020019190600101906101b7565b5b5090506101e091906101e4565b5090565b61020691905b808211156102025760008160009055506001016101ea565b5090565b90565b610db8806102186000396000f3fe608060405234801561001057600080fd5b50600436106100a95760003560e01c80637547c7a3116100715780637547c7a3146102395780638da5cb5b14610267578063a5ce413b146102b1578063be22f546146102bb578063c93c8f3414610305578063fd5e6dd114610361576100a9565b806306fdde03146100ae57806345bc78ab146101315780635eb186f81461018957806360ab5852146101d35780636f49712b146101dd575b600080fd5b6100b66103cf565b6040518080602001828103825283818151815260200191508051906020019080838360005b838110156100f65780820151818401526020810190506100db565b50505050905090810190601f1680156101235780820380516001836020036101000a031916815260200191505b509250505060405180910390f35b6101736004803603602081101561014757600080fd5b81019080803573ffffffffffffffffffffffffffffffffffffffff16906020019092919050505061046d565b6040518082815260200191505060405180910390f35b610191610485565b604051808273ffffffffffffffffffffffffffffffffffffffff1673ffffffffffffffffffffffffffffffffffffffff16815260200191505060405180910390f35b6101db6104ab565b005b61021f600480360360208110156101f357600080fd5b81019080803573ffffffffffffffffffffffffffffffffffffffff1690602001909291905050506106f2565b604051808215151515815260200191505060405180910390f35b6102656004803603602081101561024f57600080fd5b8101908080359060200190929190505050610712565b005b61026f610a3c565b604051808273ffffffffffffffffffffffffffffffffffffffff1673ffffffffffffffffffffffffffffffffffffffff16815260200191505060405180910390f35b6102b9610a62565b005b6102c3610c84565b604051808273ffffffffffffffffffffffffffffffffffffffff1673ffffffffffffffffffffffffffffffffffffffff16815260200191505060405180910390f35b6103476004803603602081101561031b57600080fd5b81019080803573ffffffffffffffffffffffffffffffffffffffff169060200190929190505050610caa565b604051808215151515815260200191505060405180910390f35b61038d6004803603602081101561037757600080fd5b8101908080359060200190929190505050610cca565b604051808273ffffffffffffffffffffffffffffffffffffffff1673ffffffffffffffffffffffffffffffffffffffff16815260200191505060405180910390f35b60008054600181600116156101000203166002900480601f0160208091040260200160405190810160405280929190818152602001828054600181600116156101000203166002900480156104655780601f1061043a57610100808354040283529160200191610465565b820191906000526020600020905b81548152906001019060200180831161044857829003601f168201915b505050505081565b60056020528060005260406000206000915090505481565b600160009054906101000a900473ffffffffffffffffffffffffffffffffffffffff1681565b600360009054906101000a900473ffffffffffffffffffffffffffffffffffffffff1673ffffffffffffffffffffffffffffffffffffffff163373ffffffffffffffffffffffffffffffffffffffff1614610551576040517f08c379a0000000000000000000000000000000000000000000000000000000008152600401808060200182810382526029815260200180610d076029913960400191505060405180910390fd5b60008090505b6004805490508110156106ef5760006004828154811061057357fe5b9060005260206000200160009054906101000a900473ffffffffffffffffffffffffffffffffffffffff16905060006064600a600560008573ffffffffffffffffffffffffffffffffffffffff1673ffffffffffffffffffffffffffffffffffffffff1681526020019081526020016000205402816105ee57fe5b04905060008111156106e057600160009054906101000a900473ffffffffffffffffffffffffffffffffffffffff1673ffffffffffffffffffffffffffffffffffffffff1663a9059cbb83836040518363ffffffff1660e01b8152600401808373ffffffffffffffffffffffffffffffffffffffff1673ffffffffffffffffffffffffffffffffffffffff16815260200182815260200192505050602060405180830381600087803b1580156106a357600080fd5b505af11580156106b7573d6000803e3d6000fd5b505050506040513d60208110156106cd57600080fd5b8101908080519060200190929190505050505b50508080600101915050610557565b50565b60076020528060005260406000206000915054906101000a900460ff1681565b6000811161076b576040517f08c379a000000000000000000000000000000000000000000000000000000000815260040180806020018281038252602d815260200180610d30602d913960400191505060405180910390fd5b600260009054906101000a900473ffffffffffffffffffffffffffffffffffffffff1673ffffffffffffffffffffffffffffffffffffffff166323b872dd3330846040518463ffffffff1660e01b8152600401808473ffffffffffffffffffffffffffffffffffffffff1673ffffffffffffffffffffffffffffffffffffffff1681526020018373ffffffffffffffffffffffffffffffffffffffff1673ffffffffffffffffffffffffffffffffffffffff1681526020018281526020019350505050602060405180830381600087803b15801561084857600080fd5b505af115801561085c573d6000803e3d6000fd5b505050506040513d602081101561087257600080fd5b81019080805190602001909291905050505080600560003373ffffffffffffffffffffffffffffffffffffffff1673ffffffffffffffffffffffffffffffffffffffff16815260200190815260200160002060008282540192505081905550600660003373ffffffffffffffffffffffffffffffffffffffff1673ffffffffffffffffffffffffffffffffffffffff16815260200190815260200160002060009054906101000a900460ff166109895760043390806001815401808255809150509060018203906000526020600020016000909192909190916101000a81548173ffffffffffffffffffffffffffffffffffffffff021916908373ffffffffffffffffffffffffffffffffffffffff160217905550505b6001600760003373ffffffffffffffffffffffffffffffffffffffff1673ffffffffffffffffffffffffffffffffffffffff16815260200190815260200160002060006101000a81548160ff0219169083151502179055506001600660003373ffffffffffffffffffffffffffffffffffffffff1673ffffffffffffffffffffffffffffffffffffffff16815260200190815260200160002060006101000a81548160ff02191690831515021790555050565b600360009054906101000a900473ffffffffffffffffffffffffffffffffffffffff1681565b6000600560003373ffffffffffffffffffffffffffffffffffffffff1673ffffffffffffffffffffffffffffffffffffffff16815260200190815260200160002054905060008111610aff576040517f08c379a0000000000000000000000000000000000000000000000000000000008152600401808060200182810382526027815260200180610d5d6027913960400191505060405180910390fd5b600260009054906101000a900473ffffffffffffffffffffffffffffffffffffffff1673ffffffffffffffffffffffffffffffffffffffff1663a9059cbb33836040518363ffffffff1660e01b8152600401808373ffffffffffffffffffffffffffffffffffffffff1673ffffffffffffffffffffffffffffffffffffffff16815260200182815260200192505050602060405180830381600087803b158015610ba857600080fd5b505af1158015610bbc573d6000803e3d6000fd5b505050506040513d6020811015610bd257600080fd5b8101908080519060200190929190505050506000600560003373ffffffffffffffffffffffffffffffffffffffff1673ffffffffffffffffffffffffffffffffffffffff168152602001908152602001600020819055506000600760003373ffffffffffffffffffffffffffffffffffffffff1673ffffffffffffffffffffffffffffffffffffffff16815260200190815260200160002060006101000a81548160ff02191690831515021790555050565b600260009054906101000a900473ffffffffffffffffffffffffffffffffffffffff1681565b60066020528060005260406000206000915054906101000a900460ff1681565b60048181548110610cd757fe5b906000526020600020016000915054906101000a900473ffffffffffffffffffffffffffffffffffffffff168156fe63616c6c6572206f6620746869732066756e6374696f6e206d75737420626520746865206f776e6572616d6f756e74207374616b65642068617320746f2062652067726561746572207468616e203020746f6b656e7362616c616e63652068617320746f2062652067726561746572207468616e203020746f6b656e73a265627a7a7231582031bfc0afe0a13410af82cb58670c060b9fe0132239222eb654c8c884cbd9d28b64736f6c63430005100032",
  "source": "pragma solidity ^0.5.0;\r\n\r\nimport \"./DaiToken.sol\";\r\nimport \"./DappToken.sol\";\r\n\r\ncontract TokenFarm {\r\n    //All code goes here\r\n    string public name = \"TokenSwap Token Farm\"; //state variable\r\n    DappToken public dappToken; //saved as types in this state variables\r\n    DaiToken public daiToken;\r\n    address public owner;\r\n\r\n    address[] public stakers; //array of investors\r\n    //key(address) => value(tokens investors are currently staking)\r\n    mapping(address => uint) public stakingBalance;\r\n    mapping(address => bool) public hasStaked;\r\n    mapping(address => bool) public isStaking;\r\n\r\n\r\n    constructor(DappToken _dappToken, DaiToken _daiToken) public {\r\n         dappToken = _dappToken;\r\n         daiToken = _daiToken;\r\n         owner = msg.sender;\r\n    }\r\n    \r\n    // 1. staking tokens ->> investor putting money into app\r\n    function stakeTokens(uint _amount) public { //1 param, which is amount of tokens to stake\r\n        // code goes here...\r\n\r\n        //require that the amount an investor stakes is greater than 0\r\n        require(_amount > 0, \"amount staked has to be greater than 0 tokens\");\r\n\r\n        //transfer mock DAI to contract for staking\r\n        daiToken.transferFrom(msg.sender, address(this), _amount); \r\n\r\n        //update staking balance\r\n        stakingBalance[msg.sender] += _amount;\r\n        \r\n        //add investor to stakers array if the investor has not staked before\r\n        if (!hasStaked[msg.sender]) {\r\n            stakers.push(msg.sender);\r\n        } \r\n\r\n        //update staking status\r\n        isStaking[msg.sender] = true;\r\n        hasStaked[msg.sender] = true;\r\n    }\r\n   \r\n    // 2. Issuing tokens ->> earning interest on already staked tokens\r\n    function issueTokens() public {\r\n        //make sure only the owner can call this function\r\n        require(msg.sender == owner, \"caller of this function must be the owner\");\r\n        \r\n        for (uint i=0; i<stakers.length; i++){\r\n            address recipient = stakers[i];\r\n            uint balance = stakingBalance[recipient] * 10 / 100; //we would match the investors staked tokens 1 dai = 1 dapp interest etc\r\n            if (balance > 0){\r\n                dappToken.transfer(recipient, balance);\r\n            }\r\n        }\r\n    }      \r\n    \r\n    // 3. unstaking tokens ->> withdrow money from app\r\n    function unstakeTokens() public {\r\n        //fetch the staking balance\r\n        uint balance = stakingBalance[msg.sender];\r\n\r\n        //require balance that investor has is greater than 0\r\n        require(balance > 0, \"balance has to be greater than 0 tokens\");\r\n\r\n        //transfer balance back to sender\r\n        daiToken.transfer(msg.sender, balance);\r\n\r\n        //reset stakingBalance\r\n        stakingBalance[msg.sender] = 0;\r\n\r\n        //update staking status\r\n        isStaking[msg.sender] = false;\r\n    }\r\n\r\n\r\n}",
  "sourcePath": "C:/Users/ToyinB/Desktop/Code/TokenSwap/src/contracts/TokenFarm.sol",
  "compiler": {
    "name": "solc",
    "version": "0.5.16+commit.9c3226ce.Emscripten.clang"
  },
  "schemaVersion": "3.2.3",
  "updatedAt": "2021-09-28T16:38:14.949Z",
  "networkType": "ethereum",
  "devdoc": {
    "methods": {}
  },
  "userdoc": {
    "methods": {}
  }
}